:1000000001308A004B290000CD32F834E337203824
:10001000F536E13900005537693B6539F334E43092
:10002000E4100000263084008313000803192628FA
:100030000130F800F701F70B1B28F80B1A284A309B
:10004000F700F70B21282428800B182808002C0E15
:10005000F039F7000F300805770488000000081415
:100060003128081008000808F700080E0F39F800BA
:1000700008008316081088100811831288100F30AA
:1000800083160805F038880083120815000008144C
:10009000000033207808AC000810000008140000AD
:1000A00033207808AB0008100F308316080588004D
:1000B00083122C0EF700F030F70577082B04F800B8
:1000C0007808AB00AB1B3F28291C8810291888141E
:1000D00000000811000008102A0EAB000F30AB051D
:1000E0002B08AC0027202A080F39AB00AC002720D2
:1000F00008002830A2000C30A3000130A400063014
:10010000A5000810881008110F3083160805880014
:100110000810881008110F308312A6001220013039
:10012000A1002108033C031C9D280330AC002720BC
:100130000530A6001220A10A91280230AC00272029
:100140000530A6001220A1012108033C031CB4289D
:1001500022302107840083130008A600A901260885
:10016000AA003920A10AA4288A110A126329260BA1
:10017000BA28BD284030A700BE28A70101302502BB
:10018000A70727088038A800A9012808AA00392055
:1001900008002408073A0319D7280B3A0319DC286A
:1001A000063A0319E428023A0319EA28EF28013035
:1001B000A500A600B720F428A9010130AA00392023
:1001C0000230A6001220F4280130A5000230A6005B
:1001D000B720F428A9011030AA003920F4280130F2
:1001E000A9002408AA00392008000B08A1008B13DD
:1001F000831603178C170C140000000083120313DE
:10020000A11B8B1703170C087F3903194929031306
:10021000A10003170D080313A20003170F0803130F
:10022000A3002108A400C920220803178D0003138E
:10023000230803178F0003130B08A4008B138316E6
:1002400003178C170C140000000083120313A41B67
:100250008B1703170C0D0E0D7F3903194929031352
:10026000A10003170D080313A20003170F080313BF
:10027000A3002108A400C920220803178D0003133E
:10028000230803178F008D0A03198F0A0313F5281B
:1002900003170313080003081F3983006130831616
:1002A0008F000F0803170908C039890003131F12B4
:1002B0009F1200300317880083128701880189018B
:1002C0008313031379280C30A400C9200330A50040
:1002D0000130A600B720043003178D0000308F00D6
:1002E0000313F5200330A5000230A600B7200B3021
:1002F00003178D0000308F000313F5200430A10098
:0E030000FA30A6001220A10B802963296300A9
:04400E00A42CFF3FA0
:00000001FF
;PIC16F887
;CRC=50FA  CREATED="27-sep.-22 19:09"
