:1000000002308A00572A0000D6376C3A6135651DE8
:10001000A01269004137E73AEC373A1025267500FF
:100020003030840083130008031924280130F800BD
:10003000F701F70B1928F80B18284A30F700F70BCF
:100040001F282228800B16280800370EF039F700E9
:100050000F30080577048800000008142F280810C6
:1000600008000808F700080E0F39F800080083168A
:10007000081088100811831288100F3083160805A5
:10008000F0388800831208150000081400003120A1
:100090007808B70008100000081400003120780824
:1000A000B60008100F308316080588008312370E3B
:1000B000F700F030F70577083604F8007808B60046
:1000C000B61B3D28341C8810341888140000081111
:1000D00000000810350EB6000F30B6053608B70020
:1000E000252035080F39B600B70025200800283034
:1000F000A7000C30A8000130A9000630AA000810A3
:10010000881008110F308316080588000810881021
:1001100008110F308312B00010200130A60026080D
:10012000033C031C9B280330B70025200530B0009A
:100130001020A60A8F280230B70025200530B00015
:100140001020A6012608033C031CB22827302607EE
:10015000840083130008AB00B4012B08B5003720DE
:10016000A60AA2288A110A126F2A1030AA00F701E3
:10017000FA01A70CA60C031CC3282808F7070318CC
:10018000FA0A2908FA07FA0CF70CF90CF80CAA0B72
:10019000B9280800F801F901F701FA012B08031D3D
:1001A000D4282A080319EE281030AC000310A80D3B
:1001B000A90DF70DFA0D2B087A02031DE1282A0874
:1001C0007702031CEA282A08F702031CFA032B080B
:1001D000FA020314F80DF90DAC0BD6280800310B08
:1001E000F228F5284030B200F628B2010130300282
:1001F000B20732088038B300B4013308B5003720A5
:1002000008002F08073A03190F290B3A031914297C
:10021000063A03191C29023A031922292729013019
:10022000B000B100EF202C29B4010130B500372017
:100230000230B00010202C290130B0000230B10093
:10024000EF202C29B4011030B50037202C290130C3
:10025000B4002F08B500372008000B08A7008B1347
:10026000831603178C170C1400000000831203136D
:10027000A71B8B170318642903170C087F39031376
:10028000A70003170D080313A80003170F08031393
:10029000A9002708AF000121280803178D000313C8
:1002A000290803178F0003130B08AA008B1383166A
:1002B00003178C170C140000000083120313AA1BF1
:1002C0008B17A60B6429832903170C0D0E0D7F399C
:1002D0000313A70003170D080313A80003170F0843
:1002E0000313A9002708AF000121280803178D0078
:1002F0000313290803178F008D0A03198F0A0310AF
:100300000313A60B2D2908002D08F8012C02031851
:100310008C292C08F7009829F7010830AE00AC0DA5
:10032000F70D2D0877020318F700F80DAE0B8F2993
:1003300008002030271E3030A8002608F700A61F2E
:10034000A929F709F70A7708A6002D30A800A717F2
:1003500027142608AC006430AD0084217708A6007D
:1003600030307807A9002608AC000A30AD0084219F
:1003700030307707AB0030307807AA002808F70044
:10038000303029020319C829A714A71B2715DC2917
:100390002808A9002030A80030302A020319D429E7
:1003A0002714A71BA714DC29031D2714031DDC2910
:1003B0002908AA002030A9002719E329A718E6294F
:1003C0002718E929EC292808AF0001212908AF00E6
:1003D00001212A08AF0001212B08AF0001218A1159
:1003E0000A12D22AAE010408AD002E10831B2E146F
:1003F000270EF038A900A907E23EAA00323EAC0061
:1004000027080F39AA07AA07AC07E93EAB00AB07DC
:10041000AB07260E0F39AB07AC07AB0DAC0DAC0923
:10042000AC0D26080F39AC07A90D0730A8000A301B
:10043000AC07AB03031C182AAB07AA03031C1C2A36
:10044000AA07A903031C202AA907A803031C242A1E
:1004500028308400831307302D052D1384072C309A
:10046000040203192D170008F700031D3F2A2D1B56
:100470003F2A2D1A512AAD193F2A2030422AAD15A4
:100480002D123030F707A7010408A6002710831BA0
:1004900027147708AF00012126088400831327184A
:1004A0008317840A2D1F2F2A8A110A12E82A0308AB
:1004B0001F398300613083168F000F080317090866
:1004C000C039890003131F129F12003003178800E0
:1004D0008312870188018901831303137728831608
:1004E00003170908C039890003131F129F12013036
:1004F00003178800831203131F179F1783169F1774
:1005000083121F149F149F18832A83161E088312B8
:10051000A1001E08A2002208A7002108A6000130A1
:10052000A9000E30A800B5207908A7007808A60019
:100530007908A9007808A8000330AB00FD30AA00B4
:10054000CA207908A5007808A4002208A70021087D
:10055000A600A9010530A800B5207908A7007808F1
:10056000A6007908A9007808A8000330AB00FD3088
:10057000AA00CA207808A3000C30AF000121013086
:10058000B000B100EF20043003178D0000308F0061
:10059000031009300313A6002D212308A6001830EC
:1005A000A70099290130B0000230B100EF200A30D5
:1005B00003178D0000308F00031008300313A600CE
:1005C0002D21103084002508A7002408A600F22958
:1005D0000430A600FA30B0001020A60BEA2A822AC6
:0205E0006300B6
:04400E00A42CFF3FA0
:00000001FF
;PIC16F887
;CRC=2220  CREATED="29-sep.-22 13:29"
