:1000000002308A00392A00004536A020C421A032DF
:100010007310E4323A10252675050D005039F43777
:10002000E337EC37A0203A00C23A65372032E93096
:1000300000015039F437E337EC3720213A00C23A57
:100040006537E1392037EF31E8327300D3346E1071
:1000500070396F3AEF316F366F00293084008313A7
:100060000008031941280130F800F701F70B362882
:10007000F80B35284A30F700F70B3C283F28800B57
:10008000332808002F0EF039F7000F3008057704E9
:100090008800000008144C28081008000808F70021
:1000A000080E0F39F8000800831608108810081190
:1000B000831288100F3083160805F03888008312E9
:1000C00008150000081400004E207808AF00081042
:1000D0000000081400004E207808AE0008100F3011
:1000E00083160805880083122F0EF700F030F705FD
:1000F00077082E04F8007808AE00AE1B5A282C1C96
:1001000088102C18881400000811000008102D0E0B
:10011000AE000F30AE052E08AF0042202D080F397B
:10012000AE00AF00422008002830A5000C30A60029
:100130000130A7000630A8000810881008110F3001
:100140008316080588000810881008110F308312E4
:10015000A9002D200130A4002408033C031CB8286A
:100160000330AF0042200530A9002D20A40AAC289E
:100170000230AF0042200530A9002D20A401240840
:10018000033C031CCF282530240784008313000878
:10019000A900AC012908AD005420A40ABF288A1187
:1001A0000A125F2A0B08A5008B13831603178C17FE
:1001B0000C140000000083120313A51B8B170318F7
:1001C0000A2903170C087F390313A50003170D082C
:1001D0000313A60003170F080313A70025080C1E1E
:1001E000EF289900260803178D000313270803172B
:1001F0008F0003130B08A8008B13831603178C17AB
:100200000C140000000083120313A81B8B17A40B0F
:100210000A292A2903170C0D0E0D7F390313A50097
:1002200003170D080313A60003170F080313A700F5
:1002300025080C1E19299900260803178D000313A1
:10024000270803178F008D0A03198F0A0310031361
:10025000A40BD2288A110A128C2AAC010408AB0024
:100260002C10831B2C14250EF038A700A707E23EA4
:10027000A800323EAA0025080F39A807A807AA0738
:10028000E93EA900A907A907240E0F39A907AA0763
:10029000A90DAA0DAA09AA0D24080F39AA07A70DAE
:1002A0000730A6000A30AA07A903031C5329A9078F
:1002B000A803031C5729A807A703031C5B29A7074A
:1002C000A603031C5F2926308400831307302B0507
:1002D0002B1384072A30040203192B170008F70098
:1002E000031D7A292B1B7A292B1A8229AB197A290B
:1002F00020307D29AB152B123030F70777080C1E04
:100300007F299900840A2B1F6A298A110A12932ACD
:100310000130A5004030A4006730F700F70B8E29AC
:100320009129A40B9829A50B9829A001F801A229CD
:100330008C1E8C291808A0001A08F800A01CA229FD
:10034000181218168A110A129C2A290BA829AB29FF
:100350004030AA00AC29AA0101302802AA072A08C5
:100360008038AB00AC012B08AD00542008002708F2
:10037000073A0319C5290B3A0319CA29063A031982
:10038000D229023A0319D829DD290130A800A90091
:10039000A521E229AC010130AD0054200230A900B2
:1003A0002D20E2290130A8000230A900A521E22970
:1003B000AC011030AD005420E2290130AC00270818
:1003C000AD00542008000B08A4008B1383160317FC
:1003D0008C170C140000000083120313A41B8B174E
:1003E00003170C087F390319372A0313A4000317D6
:1003F0000D080313A50003170F080313A600240814
:10040000A700B721250803178D000313260803173B
:100410008F0003130B08A7008B13831603178C1789
:100420000C140000000083120313A71B8B17031783
:100430000C0D0E0D7F390319372A0313A40003177F
:100440000D080313A50003170F080313A6002408C3
:10045000A700B721250803178D00031326080317EB
:100460008F008D0A03198F0A0313E329031703135F
:10047000080003081F398300613083168F000F08BE
:100480008312A001831603178711193003139900F3
:10049000A63098009030831298008316031709083D
:1004A000C039890003131F129F1200300317880000
:1004B000831287018801890183130313942883160B
:1004C00003170908C039890003131F129F12013056
:1004D00003178800831203131F179F1783169F1794
:1004E00083121F149F149F18732A83161E088312E9
:1004F000A1001E08A2000430A400FA30A9002D209B
:10050000A40B7D2A043003178D0000308F000310E8
:100510000E300313A400D228103084002208A50056
:100520002108A4002D290A300C1E942A99000D30B0
:100530000C1E982A990088297808A3002308413ABC
:100540000319A62A033A0319C82AEA2A0C30A7007D
:10055000B7210130A800A900A5210E3003178D0096
:1005600000308F000313E3210130A8000230A900FE
:10057000A521143003178D0000308F000313E321F1
:100580000830A400FA30A9002D20A40BC22AFF2AAB
:100590000C30A700B7210130A800A900A52119300F
:1005A00003178D0000308F000313E3210130A800F2
:1005B0000230A900A5211F3003178D0000308F00E5
:1005C0000313E3210830A400FA30A9002D20A40B66
:1005D000E42AFF2A0C30A700B7210130A800A900A7
:1005E000A521263003178D0000308F000313E3216F
:1005F0000430A400FA30A9002D20A40BFA2A722A94
:02060000630095
:04400E00A42CFF3FA0
:00000001FF
;PIC16F887
;CRC=37DF  CREATED="17-nov.-22 23:00"
