:1000000006308A00872E0000CD27C427A020552A5D
:10001000CF262E00D418BA12E621202B311D450020
:10002000D418BA12E6212010D618BA2220104D1D7D
:10003000411020108A060002D418BA12E621202BA3
:10004000311D4100D418BA12E6212010D618BA206A
:1000500020104D1D41050D005419BA12E621202B28
:10006000321D45005419BA12E62120105619BA2241
:1000700020104D1D41050D005419BA12E621202B08
:10008000321D41005419BA12E62120105619BA2027
:1000900020104D1D41050D00CD27C427A026412766
:1000A000D5204C00D418BA12E621202B311DA531E1
:1000B00000015419BA12E621202B321DA53100018E
:1000C000D418BA12E6212010D618BA126310A0264E
:1000D000BA26201020108A0600015419BA12E6210F
:1000E00020105619BA126310A026BA268A060000FC
:1000F000AD16AD16AD16AD16CD27C427A020552AD6
:10010000CF26412AC921CF16AD16AD16AD162D0545
:100110000D00AD16AD16AD16AD16CD27C427A02621
:100120004127D520CC16AD16AD16AD162D050D0008
:1001300045308400831300080319AC280130F8000F
:10014000F701F70BA128F80BA0284A30F700F70BAE
:10015000A728AA28800B9E2808004C0EF039F7002B
:100160000F3008057704880000000814B72808102D
:1001700008000808F700080E0F39F8000800831679
:10018000081088100811831288100F308316080594
:10019000F038880083120815000008140000B92008
:1001A0007808CC000810000008140000B920780876
:1001B000CB0008100F3083160805880083124C0E00
:1001C000F700F030F70577084B04F8007808CB000B
:1001D000CB1BC528491C8810491888140000081139
:1001E000000008104A0ECB000F30CB054B08CC00A6
:1001F000AD204A080F39CB00CC00AD2008002830D4
:10020000A8000C30A9000130AA000630AB0008108D
:10021000881008110F308316080588000810881010
:1002200008110F308312C50098200130A70027085D
:10023000033C031C23290330CC00AD200530C5004E
:100240009820A70A17290230CC00AD200530C50040
:100250009820A7012708033C031C3A2928302707C8
:10026000840083130008AC00C9012C08CA00BF2019
:10027000A70A2A298A110A12B12E0B08A7008B138C
:10028000831603178C170C1400000000831203134D
:10029000A71B8B1703170C087F3903199329031326
:1002A000A70003170D080313A80003170F08031373
:1002B000A90027080C1E5A299900280803178D0049
:1002C0000313290803178F0003130B08AA008B13CD
:1002D000831603178C170C140000000083120313FD
:1002E000AA1B8B1703170C0D0E0D7F3903199329C9
:1002F0000313A70003170D080313A80003170F0823
:100300000313A90027080C1E832999002808031746
:100310008D000313290803178F008D0A03198F0A14
:1003200003133D29031703130800460B98299B2943
:100330004030C7009C29C70101304502C707470864
:100340008038C800C9014808CA00BF200800440816
:10035000073A0319B5290B3A0319BA29063A0319C2
:10036000C229023A0319C829CD290130C500C600A7
:100370009521D229C9010130CA00BF200230C50031
:100380009820D2290130C5000230C6009521D2291B
:10039000C9011030CA00BF20D2290130C900440869
:1003A000CA00BF2008000B08B7008B138316031781
:1003B0008C170C140000000083120313B71B8B175B
:1003C00003170C087F390319272A0313B7000317F3
:1003D0000D080313B80003170F080313B9003708FB
:1003E000C400A721380803178D0003133908031729
:1003F0008F0003130B08BA008B13831603178C1797
:100400000C140000000083120313BA1B8B17031790
:100410000C0D0E0D7F390319272A0313B70003179C
:100420000D080313B80003170F080313B9003708AA
:10043000C400A721380803178D00031339080317D8
:100440008F008D0A03198F0A0313D329031703138F
:1004500008008E30F7003808F8003708F900FA0174
:10046000F808031D3D2A7908F800F9010830F70261
:10047000F808031D3D2AF701452A0310F81B442AFA
:10048000F90DF80DF7033D2AF81308004408031985
:10049000B62ACC0048080319B62ACC070318572AF5
:1004A0007F30CC02031CB62A0319B62A5B2A81309E
:1004B000CC070318B62A4C08F700F801F901FA0135
:1004C0004508D000D0174608CF004708CE001830A6
:1004D000CC00CD014E1C842A4B08FA07031C762A57
:1004E000F90A031D762AF80A0319CD174A08F907F5
:1004F000031C7D2AF80A0319CD174908C600C61740
:100500004608F8070318CD17CD0DF80CF90CFA0CB6
:10051000D00CCF0CCE0C0310CC0B692A0130F7079E
:100520000318B62AF81B9B2AD00DFA0DF90DF80D09
:10053000F7030319B62AD01FAC2AFA0A031DAC2A06
:10054000F90A031DAC2AF80A031DAC2AF80CF90CB1
:10055000FA0CF70A0319B62A4508CD004908CD065A
:10056000CD1FB42AF817BA2AF813BA2AF701F801EE
:10057000F901FA0108003B080319802BC7003F0866
:100580000319802BC702031CCA2A7F30C707031830
:10059000802BD02A8130C702031C802B0319802BAB
:1005A0004708F700F801F901FA01C6013C08C50047
:1005B000C5173D08C4003E08C3001930C7004208F3
:1005C000C3020318F32A0130C4020318F32AC50238
:1005D0000318F32AC6020318F32AC60AC50AC40A76
:1005E0004208C307252B4108C40203180E2B013013
:1005F000C50203180E2BC60203180E2BC60AC50A25
:100600004108C4074208C307031C252BC40A031D65
:10061000252BC50A031D252BC60A252B400880382B
:10062000C5020318242B0130C6020318242BC60A66
:1006300040088038C5074108C407031C022BC50ABF
:10064000031D022BC60A022B7A14C70B282B332B4F
:100650000310C30DC40DC50DC60D0310FA0DF90D21
:10066000F80DC80DDF2A481C3B2B0310F80CF90CC1
:10067000FA0CC80C3E2BF7030319802BC81B672B01
:100680000310C30DC40DC50DC60D4208C3020318E7
:10069000532B0130C4020318532BC5020318532BEC
:1006A000C602031C762B4108C40203185E2B0130DE
:1006B000C50203185E2BC602031C762B4008803847
:1006C000C5020318672B0130C602031C762BFA0AF9
:1006D000031D762BF90A031D762BF80A031D762BD2
:1006E000F70A0319802BF80CF90CFA0C3C08C70028
:1006F0004008C706C71F7E2BF817842BF813842BDE
:10070000F701F801F901FA0108003608BD003A08BE
:10071000BD06BD1F902B03110310B61B0314C32B82
:100720003608BD003908BE003508BE0203199E2BED
:10073000BD1FC32B0308013A8300C32B3A08BE0038
:100740003608BE020319AA2BBD1FC32B0308013AAA
:100750008300C32B3B08BE003708BE020319B62B2B
:10076000BD1FC32B0308013A8300C32B3C08BE0006
:100770003808BE020319C22BBD1FC32B0308013A60
:100780008300C32B031008004408B63CC400FA01E0
:100790004508C800C5170310C50CC60CC70CFA0CD9
:1007A000F90CF80CF70CC40BCB2BC81FE22BF70984
:1007B000F809F909FA09F70A0319F80A0319F90AF5
:1007C0000319FA0A08008318E82B4C3084008313BD
:1007D000F701F801F901FA01CC01CD01CE01CF01F9
:1007E0004B084A04490448040319262C2030D00041
:1007F0000310C40DC50DC60DC70DCC0DCD0DCE0D0E
:10080000CF0D4B084F02031D0F2C4A084E02031D4B
:100810000F2C49084D02031D0F2C48084C02031CE5
:10082000202C4808CC024908031C490FCD024A0875
:10083000031C4A0FCE024B08031C4B0FCF020314BC
:10084000F70DF80DF90DFA0DD00BF82B4C088000C0
:10085000840A4D088000840A4E088000840A4F08EC
:10086000800008000408BC003B08BE000319512C9E
:100870003A08C7003908C6003808C5003708C40060
:10088000CB01CA012030C9008230C80046227A0854
:10089000BA007908B9007808B8007708B700BE0B2D
:1008A000382C3A08C7003908C6003808C500370890
:1008B000C400C4237A08BA007908B9007808B800DF
:1008C0007708B700BA1F712CBC03BC16B709B8096A
:1008D000B909BA09B70A0319B80A0319B90A0319F9
:1008E000BA0A3B30C3009A30C200CA30C100C0010E
:1008F0000A30BE003B080319BC0A83143730840059
:1009000083133A08C7003908C6003808C5003708FD
:10091000C4004308CB004208CA004108C90040088F
:10092000C800E3237808F708031DA92C3B0A3E0200
:100930000319A92C3C080319AB2C0F393E020319EB
:10094000A32C0318DB2CBC1BDB2C3C1BAB2C20305A
:10095000D72C2030BC05BC1EB92CBC123B08031D93
:10096000BC037708BC002D30C400A7213C08F70069
:10097000BC013B083E02031DC72C7708BC002E308B
:10098000C400A7213C08F7002030BC0500303030FF
:10099000BC1ED72CBC123B08031DBC037708BC004F
:1009A0002D30C400A7213C08F700BC013030F70708
:1009B0007708C400A72183104308C7004208C60077
:1009C0004108C5004008C400CB01CA01C9010A3072
:1009D000C800E3237A08C3007908C2007808C10080
:1009E0007708C000BE0B7D2C08000B08B8008B13E5
:1009F000831603178C170C140000000083120313D6
:100A0000B81B8B1703182C2D03170C087F39031301
:100A1000B80003170D080313B90003170F080313D9
:100A2000BA003808C400A721390803178D00031342
:100A30003A0803178F0003130B08BB008B138316B0
:100A400003178C170C140000000083120313BB1B48
:100A50008B17B70B2C2D4B2D03170C0D0E0D7F395B
:100A60000313B80003170D080313B90003170F0889
:100A70000313BA003808C400A721390803178D00F2
:100A800003133A0803178F008D0A03198F0A031006
:100A90000313B70BF52C08000408BC003B08BE008C
:100AA00003196B2D3A08C7003908C6003808C5007D
:100AB0003708C400CB01CA012030C9008230C80009
:100AC00046227A08BA007908B9007808B800770891
:100AD000B700BE0B522D3A08C7003908C6003808C7
:100AE000C5003708C400C4237A08BA007908B900E1
:100AF0007808B8007708B700BA1F8B2DBC03BC1666
:100B0000B709B809B909BA09B70A0319B80A031924
:100B1000B90A0319BA0A3B30C3009A30C200CA307E
:100B2000C100C0010A30BE003B080319BC0A83148F
:100B30003730840083133A08C7003908C6003808E4
:100B4000C5003708C4004308CB004208CA0041086A
:100B5000C9004008C800E3237808F708031DC32D27
:100B60003B0A3E020319C32D3C080319C52D0F395A
:100B70003E020319BD2D0318F92DBC1BF92D3C1B9A
:100B8000C52D2030F42D2030BC05BC1ED42DBC1248
:100B90003B08031DBC037708BC002D300C1ECE2D76
:100BA00099003C08F700BC013B083E02031DE32D01
:100BB0007708BC002E300C1EDB2D99003C08F70096
:100BC0002030BC0500303030BC1EF42DBC123B0878
:100BD000031DBC037708BC002D300C1EED2D9900C1
:100BE0003C08F700BC013030F70777080C1EF62DE3
:100BF000990083104308C7004208C6004108C50099
:100C00004008C400CB01CA01C9010A30C800E3236F
:100C10007A08C3007908C2007808C1007708C000CC
:100C2000BE0B972D08000B08B8008B138316031713
:100C30008C170C140000000083120313B81B8B17D1
:100C400003184B2E03170C087F390313B800031742
:100C50000D080313B90003170F080313BA0038086F
:100C60000C1E302E9900390803178D0003133A0823
:100C700003178F0003130B08BB008B138316031796
:100C80008C170C140000000083120313BB1B8B177E
:100C9000B70B4B2E6B2E03170C0D0E0D7F39031364
:100CA000B80003170D080313B90003170F08031347
:100CB000BA0038080C1E5A2E9900390803178D0007
:100CC00003133A0803178F008D0A03198F0A0310C4
:100CD0000313B70B132E08000130B8004030B700E3
:100CE0006730F700F70B722E752EB70B7C2EB80B02
:100CF0007C2EA001F801862E8C1E702E1808A000F4
:100D00001A08F800A01C862E1812181608000308EE
:100D10001F398300613083168F000F088312A001F2
:100D2000831603178711193003139900A630980012
:100D3000903083129800FF30A10083160317090832
:100D4000C039890003131F129F1200300317880057
:100D50008312870188018901831341300313A600A0
:100D6000FF282111210883168700831207110C30F8
:100D7000970083169B019C0101309D008312A110F6
:100D8000210883168700831287100C309D000030E5
:100D9000F80006389200FF30831692008312950106
:100DA0009B01831603170908C039890003131F121A
:100DB0009F12033003178800831203131F179F1716
:100DC00083169F1783121F142608413A0319EC2E2D
:100DD0000C3A0319012F162F783003178D000030BD
:100DE0008F0003133D212308A8002208A70025082F
:100DF000AA002408A9008A1500288A117808A600EC
:100E0000162F893003178D0000308F0003133D210A
:100E10002308A8002208A7002508AA002408A90082
:100E20008A15EF2A8A117808A600162FE42E63008F
:101000002B140C30C4008A11A7218A150130C500A9
:10101000C6008A1195218A15043003178D0000300F
:101020008F008A110313D3218A150630B500FA30D8
:10103000C5008A1198208A15B50B17282B1CEC2A9D
:101040000030F8001F08C33978049F009F149F18D0
:10105000272883161E088312A7001E08A800043044
:10106000F8001F08C33978049F009F149F18362882
:1010700083161E088312A9001E08AA000430B500BA
:10108000FA30C5008A1198208A15B50B40280C301B
:10109000C4008A11A7218A152808B8002708B700BC
:1010A0008A1129228A157A08B8007908B7007808C9
:1010B000B6007708B5003808C7003708C6003608FC
:1010C000C5003508C400CB01CA012030C9008130F9
:1010D000C8008A1146228A157A08B8007908B70034
:1010E0007808B6007708B5003808BE003708BD009C
:1010F0003608BC003508BB00C201C030C1007F30DB
:10110000C0008830BF008A11BB228A157A08B80057
:101110007908B7007808B6007708B5003808C70026
:101120003708C6003608C5003508C400CB01CA011F
:101130004830C9008530C8008A1146228A157A08CD
:10114000B0007908AF007808AE007708AD002A0833
:10115000B8002908B7008A1129228A157A08B80030
:101160007908B7007808B6007708B5003808C700D6
:101170003708C6003608C5003508C400CB01CA01CF
:101180002030C9008130C8008A1146228A157A08A9
:10119000B8007908B7007808B6007708B5003808B5
:1011A000BE003708BD003608BC003508BB00C201D0
:1011B000C030C1007F30C0008830BF008A11BB2220
:1011C0008A157A08B8007908B7007808B600770859
:1011D000B5003808C7003708C6003608C50035080E
:1011E000C400CB01CA014830C9008530C8008A114B
:1011F00046228A157A08B4007908B3007808B2004C
:101200007708B100B801B7017030B6008330B5007F
:101210003008BC002F08BB002E08BA002D08B9000A
:101220008A1185238A1503181729031D7C29831623
:101230000512831205128316851283128516FA3061
:1012400095001708CF3997000130C500C6008A11F4
:1012500095218A155430C4008A11A7218A1531308E
:10126000C4008A11A7218A153A30C4008A11A72127
:101270008A15893084003008BA002F08B9002E087A
:10128000B8002D08B7000230BB008A1132248A153D
:101290000C3003178D0000308F0003140630031349
:1012A000B7008A11F5248A1554300C1E552999006F
:1012B00031300C1E592999003A300C1E5D299900D5
:1012C000893084003008BA002F08B9002E08B80011
:1012D0002D08B7000230BB008A114C258A15123048
:1012E00003178D0000308F00031411300313B70073
:1012F0008A1113268A15EF293008B8002F08B70085
:101300002E08B6002D08B500BC01BB017030BA0034
:101310008330B9008A1185238A15031CEF298316AF
:101320000512831205128316851283128512950108
:101330000130C500C6008A1195218A155430C400B9
:101340008A11A7218A153130C4008A11A7218A1574
:101350003A30C4008A11A7218A15893084003008E8
:10136000BA002F08B9002E08B8002D08B7000230C7
:10137000BB008A1132248A151E3003178D000030FD
:101380008F00031406300313B7008A11F5248A1561
:1013900054300C1EC929990031300C1ECD299900FA
:1013A0003A300C1ED1299900893084003008BA00E7
:1013B0002F08B9002E08B8002D08B7000230BB0076
:1013C0008A114C258A15243003178D0000308F00B8
:1013D00003140E300313B7008A1113268A15B801BF
:1013E000B7017030B6008330B5003408BC00330854
:1013F000BB003208BA003108B9008A1185238A156A
:101400000318042A031D6A2A831605138312051381
:101410008316851383128517FA309B001D08CF3978
:101420009D000130C5000230C6008A1195218A1541
:101430005430C4008A11A7218A153230C4008A11A1
:10144000A7218A153A30C4008A11A7218A1589304C
:1014500084003408BA003308B9003208B8003108F3
:10146000B7000230BB008A1132248A152E300317D0
:101470008D0000308F00031406300313B7008A116B
:10148000F5248A1554300C1E432A990032300C1E64
:10149000472A99003A300C1E4B2A99008930840063
:1014A0003408BA003308B9003208B8003108B70070
:1014B0000230BB008A114C258A15343003178D0089
:1014C00000308F0003140E300313B7008A11132667
:1014D0008A15DE2A3408B8003308B7003208B6008F
:1014E0003108B500BC01BB017030BA008330B900CF
:1014F0008A1185238A15031CDE2A8316051383129D
:10150000051383168513831285139B010130C500D3
:101510000230C6008A1195218A155430C4008A1100
:10152000A7218A153230C4008A11A7218A153A30C2
:10153000C4008A11A7218A15893084003408BA00B2
:101540003308B9003208B8003108B7000230BB00D8
:101550008A1132248A153E3003178D0000308F0027
:10156000031406300313B7008A11F5248A1554308A
:101570000C1EB82A990032300C1EBC2A99003A3051
:101580000C1EC02A9900893084003408BA00330840
:10159000B9003208B8003108B7000230BB008A1128
:1015A0004C258A15443003178D0000308F0003143A
:1015B0000E300313B7008A1113268A158A116C2680
:1015C0008A157808AC002C084D3C031DEB2A2C082A
:1015D000F800EC2A2B101E288A110A12FD2E2B145B
:1015E0004130AD00AE00831605128312051283163A
:1015F0008512831285128316051383120513831631
:101600008513831285130C30C4008A11A7218A1513
:101610000130C500C6008A1195218A154C30031788
:101620008D0000308F008A110313D3218A150630F4
:10163000B700FA30C5008A1198208A15B70B192B0C
:101640002B1C652D0030F8001F08C33978049F005B
:101650009F149F18292B83161E088312A7001E08AB
:10166000A8000430F8001F08C33978049F009F14B5
:101670009F18382B83161E088312A9001E08AA0083
:101680002808B8002708B7008A1129228A157A0885
:10169000BA007908B9007808B8007708B7007A0866
:1016A000C7007908C6007808C5007708C400CB01D8
:1016B000CA012030C9008130C8008A1146228A152B
:1016C0007A08BA007908B9007808B8007708B70036
:1016D0007A08BE007908BD007808BC007708BB0016
:1016E000C201C030C1007F30C0008830BF008A1105
:1016F000BB228A157A08BA007908B9007808B800C0
:101700007708B7007A08C7007908C6007808C500CE
:101710007708C400CB01CA014830C9008530C80031
:101720008A1146228A157A08B2007908B100780831
:10173000B0007708AF002A08B8002908B7008A115E
:1017400029228A157A08BA007908B9007808B80001
:101750007708B7007A08C7007908C6007808C5007E
:101760007708C400CB01CA012030C9008130C8000D
:101770008A1146228A157A08BA007908B9007808D1
:10178000B8007708B7007A08BE007908BD0078086D
:10179000BC007708BB00C201C030C1007F30C00070
:1017A0008830BF008A11BB228A157A08BA007908EE
:1017B000B9007808B8007708B7007A08C700790838
:1017C000C6007808C5007708C400CB01CA014830BC
:1017D000C9008530C8008A1146228A157A08B600E9
:1017E0007908B5007808B4007708B3000C30C4005D
:1017F0008A11A7218A150130C500C6008A119521DA
:101800008A155430C4008A11A7218A153130C400CA
:101810008A11A7218A153A30C4008A11A7218A1596
:10182000893084003208BA003108B9003008B800A5
:101830002F08B7000230BB008A1132248A155430B9
:1018400003178D0000308F00031405300313B70019
:101850008A11F5248A152D08C4008A11A7218A153A
:101860000130C5000230C6008A1195218A15543016
:10187000C4008A11A7218A153230C4008A11A72119
:101880008A153A30C4008A11A7218A15893084004C
:101890003608BA003508B9003408B8003308B70074
:1018A0000230BB008A1132248A155B3003178D0089
:1018B00000308F00031405300313B7008A11F5249C
:1018C0008A152E08C4008A11A7218A1554300C1ECF
:1018D000672C990031300C1E6B2C99003A300C1E8D
:1018E0006F2C9900893084003208BA003108B900A1
:1018F0003008B8002F08B7000230BB008A114C2511
:101900008A15623003178D0000308F0003140630F3
:101910000313B7008A1113268A152D080C1E8E2C6E
:101920009900663003178D0000308F0003140B30D0
:101930000313B7008A1113268A1554300C1E9E2CEF
:10194000990032300C1EA22C99003A300C1EA62CA5
:101950009900893084003608BA003508B900340887
:10196000B8003308B7000230BB008A114C258A1535
:101970006F3003178D0000308F00031406300313FF
:10198000B7008A1113268A152E080C1EC52C990043
:10199000733003178D0000308F00031407300313DA
:1019A000B7008A1113268A150430B700FA30C50033
:1019B0008A1198208A15B70BD62C8A116C268A15A5
:1019C0007808AC002C08313A0319F32C033A0319B8
:1019D000092D013A0319242D073A03193F2D753AB1
:1019E00003195D2D642D83160512831205128316CB
:1019F0008512831285129501831605138312051330
:101A000083168513831285139B014130AD00AE0010
:101A1000642D831605128312051283168512831214
:101A20008516FF3095001708CF39970083160513E8
:101A30008312051383168513831285139B0145308A
:101A4000AD004130AE00642D8316051283120512DD
:101A5000831685128312851295018316051383124E
:101A600005138316851383128517FF309B001D080D
:101A7000CF399D004130AD004530AE00642D831656
:101A80000512831205128316851283128516FF3004
:101A900095001708CF399700831605138312051395
:101AA0008316851383128517FF309B001D08CF39DD
:101AB0009D004530AD00AE00642D4130AC002C08D7
:101AC000F800652D2B10642D202B8A110A12122F7D
:04400E00A42CFF3FA0
:00000001FF
;PIC16F887
;CRC=3060  CREATED="03-dic.-22 18:52"
