:1000000001308A00AD290000D332EE396F39A018D3
:100010003A1025267500D332EE396F3920193A107F
:10002000252675002F308400831300080319262825
:100030000130F800F701F70B1B28F80B1A284A309B
:10004000F700F70B21282428800B18280800360E0B
:10005000F039F7000F300805770488000000081415
:100060003128081008000808F700080E0F39F800BA
:1000700008008316081088100811831288100F30AA
:1000800083160805F038880083120815000008144C
:10009000000033207808B6000810000008140000A3
:1000A00033207808B50008100F3083160805880043
:1000B0008312360EF700F030F70577083504F800A4
:1000C0007808B500B51B3F28331C881033188814F6
:1000D0000000081100000810340EB5000F30B505FF
:1000E0003508B600272034080F39B500B6002720A0
:1000F00008002830A6000C30A7000130A800063008
:10010000A9000810881008110F3083160805880010
:100110000810881008110F308312AF001220013030
:10012000A5002508033C031C9D280330B6002720AA
:100130000530AF001220A50A91280230B600272012
:100140000530AF001220A5012508033C031CB4288C
:1001500026302507840083130008AA00B3012A086B
:10016000B4003920A50AA4280800300BB828BB2801
:100170004030B100BC28B10101302F02B107310875
:100180008038B200B3013208B400392008002E08CC
:10019000073A0319D5280B3A0319DA28063A031946
:1001A000E228023A0319E828ED280130AF00B00038
:1001B000B520F228B3010130B40039200230AF007D
:1001C0001220F2280130AF000230B000B520F22832
:1001D000B3011030B4003920F2280130B3002E08EA
:1001E000B400392008000B08A6008B1383160317F0
:1001F0008C170C140000000083120313A61B8B172E
:1002000003182A2903170C087F390313A6000317C4
:100210000D080313A70003170F080313A8002608EF
:10022000AE00C720270803178D0003132808031703
:100230008F0003130B08A9008B13831603178C1769
:100240000C140000000083120313A91B8B17A50BCD
:100250002A29492903170C0D0E0D7F390313A60017
:1002600003170D080313A70003170F080313A800B3
:100270002608AE00C720270803178D00031328089F
:1002800003178F008D0A03198F0A03100313A50BA0
:10029000F3280800AD010408AC002D10831B2D14B9
:1002A000260EF038A800A807E23EA900323EAB00B7
:1002B00026080F39A907A907AB07E93EAA00AA0734
:1002C000AA07250E0F39AA07AB07AA0DAB0DAB097C
:1002D000AB0D25080F39AB07A80D0730A7000A3072
:1002E000AB07AA03031C7029AA07A903031C7429DE
:1002F000A907A803031C7829A807A703031C7C29C6
:1003000027308400831307302C052C1384072B30EF
:10031000040203192C170008F700031D97292C1B52
:1003200097292C1AA929AC19972920309A29AC159C
:100330002C123030F707A6010408A5002610831BF5
:1003400026147708AE00C7202508840083132618DA
:100350008317840A2C1F8729080003081F3983008C
:10036000613083168F000F0803170908C039890010
:1003700003131F129F120030031788008312870196
:100380008801890183130313792083160317090851
:10039000C039890003131F129F120330031788000E
:1003A000831203131F179F1783169F1783121F149F
:1003B00079200030F8001F08C33978049F009F148B
:1003C0009F18E02983161E088312A1001E08A200B0
:1003D0000430F8001F08C33978049F009F149F1849
:1003E000EF2983161E088312A3001E08A4000C30F8
:1003F000AE00C7200130AF00B000B52004300317B5
:100400008D0000308F0003100A300313A500F32085
:10041000103084002208A6002108A5004A210130DE
:10042000AF000230B000B5200B3003178D00003054
:100430008F0003100A300313A500F320103084004E
:100440002408A6002308A5004A210430A500FA309C
:0C045000AF001220A50B272AD929630059
:04400E00A42CFF3FA0
:00000001FF
;PIC16F887
;CRC=8CD6  CREATED="18-nov.-22 12:42"
