:1000000006308A00BE2E0000CD27C427A020552A26
:10001000CF262E00D4183A1025267510D6183A107F
:100020004500D4183A1025267510D6183A1041000C
:1000300054193A102526751056193A1045005419CE
:100040003A102526751056193A104100D4183A1066
:1000500025267510D6183A10A531A026BA202010F2
:1000600020050D0054193A102526751056193A101E
:10007000A531A026BA208A060000CD27C427A026D5
:100080004127D5204C00D4183A1025267510D618D3
:100090003A10A531000154193A1025267510561949
:1000A0003A10A5310001D4183A1025267510D6183B
:1000B0003A10A531A026BA26201020108A06000189
:1000C00054193A102526751056193A10A531A02654
:1000D000BA268A060000AD16AD16AD16AD16CD27B0
:1000E000C427A020552ACF26412AC921CF16AD16F4
:1000F000AD16AD162D050D00AD16AD16AD16AD162F
:10010000CD27C427A0264127D520CC16AD16AD1685
:10011000AD162D050D003930840083130008031936
:100120009F280130F800F701F70B9428F80B93286B
:100130004A30F700F70B9A289D28800B9128080079
:10014000400EF039F7000F300805770488000000F2
:100150000814AA28081008000808F700080E0F392C
:10016000F800080083160810881008118312881000
:100170000F3083160805F038880083120815000038
:1001800008140000AC207808C00008100000081413
:100190000000AC207808BF0008100F308316080557
:1001A00088008312400EF700F030F70577083F040F
:1001B000F8007808BF00BF1BB8283D1C88103D1808
:1001C000881400000811000008103E0EBF000F3018
:1001D000BF053F08C000A0203E080F39BF00C00087
:1001E000A02008002830A8000C30A9000130AA0087
:1001F0000630AB000810881008110F308316080570
:1002000088000810881008110F308312B9008B2065
:100210000130A7002708033C031C16290330C00047
:10022000A0200530B9008B20A70A0A290230C0009F
:10023000A0200530B9008B20A7012708033C031C30
:100240002D2928302707840083130008AC00BD0146
:100250002C08BE00B220A70A1D298A110A12E82E16
:100260000B08A7008B13831603178C170C140000C0
:10027000000083120313A71B8B1703170C087F3989
:10028000031986290313A70003170D080313A800F9
:1002900003170F080313A90027080C1E4D29990006
:1002A000280803178D000313290803178F00031371
:1002B0000B08AA008B13831603178C170C1400006D
:1002C000000083120313AA1B8B1703170C0D0E0DCE
:1002D0007F39031986290313A70003170D08031399
:1002E000A80003170F080313A90027080C1E76297E
:1002F0009900280803178D000313290803178F009E
:100300008D0A03198F0A03133029031703130800FA
:100310003A0B8B298E294030BB008F29BB0101305D
:100320003902BB073B088038BC00BD013C08BE0059
:10033000B22008003808073A0319A8290B3A031914
:10034000AD29063A0319B529023A0319BB29C02978
:100350000130B900BA008821C529BD010130BE00B5
:10036000B2200230B9008B20C5290130B90002301B
:10037000BA008821C529BD011030BE00B220C529B0
:100380000130BD003808BE00B22008000B08AF00E5
:100390008B13831603178C170C14000000008312B4
:1003A0000313AF1B8B1703170C087F3903191A2A85
:1003B0000313AF0003170D080313B00003170F0852
:1003C0000313B1002F08B8009A21300803178D00DD
:1003D0000313310803178F0003130B08B2008B13AC
:1003E000831603178C170C140000000083120313EC
:1003F000B21B8B1703170C0D0E0D7F3903191A2A28
:100400000313AF0003170D080313B00003170F0801
:100410000313B1002F08B8009A21300803178D008C
:100420000313310803178F008D0A03198F0A031372
:10043000C6290317031308000B08B0008B1383169B
:1004400003178C170C140000000083120313B01B59
:100450008B170318532A03170C087F390313B000B6
:1004600003170D080313B10003170F080313B2009D
:100470003008B8009A21310803178D0003133208A1
:1004800003178F0003130B08B3008B138316031796
:100490008C170C140000000083120313B31B8B177E
:1004A000AF0B532A722A03170C0D0E0D7F3903135D
:1004B000B00003170D080313B10003170F0803134F
:1004C000B2003008B8009A21310803178D000313D9
:1004D000320803178F008D0A03198F0A03100313C4
:1004E000AF0B1C2A0800B7010408B6003710831BA5
:1004F0003714300EF038B200B207E23EB300323E9D
:10050000B50030080F39B307B307B507E93EB400AB
:10051000B407B4072F0E0F39B407B507B40DB50DE6
:10052000B509B50D2F080F39B507B20D0730B10069
:100530000A30B507B403031C992AB407B303031C9C
:100540009D2AB307B203031CA12AB207B103031CFF
:10055000A52A31308400831307303605361384070B
:1005600035300402031936170008F700031DC02AAE
:10057000361BC02A361AD22AB619C02A2030C32AFE
:10058000B61536123030F707B0010408AF0030104E
:10059000831B30147708B8009A212F088400831336
:1005A00030188317840A361FB02A08000130B000C3
:1005B0004030AF006730F700F70BDC2ADF2AAF0BC3
:1005C000E62AB00BE62AA001F801F02A8C1EDA2AEE
:1005D0001808A0001A08F800A01CF02A1812181613
:1005E00008000B08B0008B13831603178C170C142C
:1005F0000000000083120313B01B8B170318292B74
:1006000003170C087F390313B00003170D080313F9
:10061000B10003170F080313B20030080C1E0E2B95
:100620009900310803178D000313320803178F0058
:1006300003130B08B3008B13831603178C170C14CA
:100640000000000083120313B31B8B17AF0B292B81
:10065000492B03170C0D0E0D7F390313B000031740
:100660000D080313B10003170F080313B20030087D
:100670000C1E382B9900310803178D000313320824
:1006800003178F008D0A03198F0A03100313AF0B92
:10069000F12A0800B7010408B6003710831B37148D
:1006A000300EF038B200B207E23EB300323EB50081
:1006B00030080F39B307B307B507E93EB400B407F4
:1006C000B4072F0E0F39B407B507B40DB50DB50932
:1006D000B50D2F080F39B507B20D0730B1000A303C
:1006E000B507B403031C702BB407B303031C742BAE
:1006F000B307B203031C782BB207B103031C7C2B96
:1007000031308400831307303605361384073530C3
:100710000402031936170008F700031D972B361B38
:10072000972B361A9F2BB619972B20309A2BB6157C
:1007300036123030F70777080C1E9C2B9900840A7C
:10074000361F872B08002B144130AD00AE000C3053
:10075000B8009A210130B900BA008821043003178B
:100760008D0000308F000313C6210630AF00FA3031
:10077000B9008B20AF0BB72B2B1C3D2D0030F800A0
:100780001F08C33978049F009F149F18C52B831638
:100790001E088312A7001E08A8000430F8001F08D6
:1007A000C33978049F009F149F18D42B83161E080A
:1007B0008312A9001E08AA000430AF00FA30B90065
:1007C0008B20AF0BDE2B0C30B8009A212808013C9F
:1007D00003182E2CFF3A031DF12B2708003C0318A9
:1007E0002E2C83160512831205128316851283128E
:1007F00085162808F9002708F800F90CF80CF90C00
:10080000F80CF90C78089500F90C790C3039F700E0
:100810001708CF39770497000130B900BA00882152
:100820000A3003178D0000308F00031004300313CB
:10083000AF001C22103084002808B0002708AF0049
:1008400073220D3003178D0000308F000314063023
:100850000313AF001C224530AD005C2C2808013C7E
:10086000031C5C2C83160512831205128316851255
:100870008312851295010130B900BA008821113028
:1008800003178D0000308F00031004300313AF00F6
:100890001C22103084002808B0002708AF00732203
:1008A000143003178D0000308F000314063003133B
:1008B000AF001C224130AD002A08013C0318A52CD2
:1008C000FF3A031D672C2908003C0318A52C83164A
:1008D00005138312051383168513831285172A08BF
:1008E000F9002908F800F90CF80CF90CF80CF90CCF
:1008F00078089B00F90C790C3039F7001D08CF39C6
:1009000077049D000130B9000230BA008821183008
:1009100003178D0000308F00031004300313AF0065
:100920001C22103084002A08B0002908AF0073226E
:100930001B3003178D0000308F00031406300313A3
:10094000AF001C224530AE00D42C2A08013C031C09
:10095000D42C831605138312051383168513831273
:1009600085139B010130B9000230BA0088211F3085
:1009700003178D0000308F00031004300313AF0005
:100980001C22103084002A08B0002908AF0073220E
:10099000223003178D0000308F000314063003133C
:1009A000AF001C224130AE00D6227808AC002C08E3
:1009B0004D3C031DDF2C2C08F8003D2D2B102C087E
:1009C000353C031D3C2D263003178D0000308F0071
:1009D000031004300313AF00F12210308400280804
:1009E000B0002708AF004A23293003178D000030DC
:1009F0008F00031405300313AF00F1222D080C1EE5
:100A0000FF2C99002D3003178D0000308F0003104C
:100A100009300313AF00F122323003178D0000308C
:100A20008F00031004300313AF00F1221030840054
:100A30002A08B0002908AF004A23353003178D007B
:100A400000308F00031405300313AF00F1222E088D
:100A50000C1E282D9900393003178D0000308F00AF
:100A6000031006300313AF00F1220430AF00FA3058
:100A7000B9008B20AF0B372DBC2B8A110A12332FF4
:100A80002B144130AD00AE008316051283120512FF
:100A9000831685128312851283160513831205139C
:100AA00083168513831285130C30B8009A21013008
:100AB000B900BA0088213D3003178D0000308F0047
:100AC0000313C6210630AF00FA30B9008B20AF0BFC
:100AD000642D2B1CBB2E0030F8001F08C33978048E
:100AE0009F009F149F18722D83161E088312A70063
:100AF0001E08A8000430F8001F08C33978049F00BE
:100B00009F149F18812D83161E088312A9001E08AA
:100B1000AA000C30B8009A210130B900BA0088212F
:100B2000433003178D0000308F000310043003138F
:100B3000AF001C22103084002808B0002708AF0046
:100B40007322463003178D0000308F0003140530E8
:100B50000313AF001C222D08B8009A210130B90000
:100B60000230BA0088214B3003178D0000308F000F
:100B7000031004300313AF001C22103084002A0835
:100B8000B0002908AF0073224E3003178D000030EB
:100B90008F00031405300313AF001C222E08B80089
:100BA0009A210430AF00FA30B9008B20AF0BD32D5F
:100BB000D6227808AC002C08313A0319EF2D033AFD
:100BC0000319052E013A0319202E073A03193B2E6B
:100BD000013A0319592E743A0319B32EBA2E83160B
:100BE0000512831205128316851283128512950150
:100BF0008316051383120513831685138312851339
:100C00009B014130AD00AE00BA2E8316051283124F
:100C100005128316851283128516FF30950017087A
:100C2000CF39970083160513831205138316851396
:100C3000831285139B014530AD004130AE00BA2EC2
:100C400083160512831205128316851283128512EC
:100C500095018316051383120513831685138312DA
:100C60008517FF309B001D08CF399D004130AD0036
:100C70004530AE00BA2E8316051283120512831674
:100C8000851283128516FF3095001708CF3997001B
:100C90008316051383120513831685138312851794
:100CA000FF309B001D08CF399D004530AD00AE00E0
:100CB000BA2E533003178D0000308F00031004301C
:100CC0000313AF00F122103084002808B000270879
:100CD000AF004A23563003178D0000308F000314F5
:100CE00005300313AF00F1222D080C1E752E99005C
:100CF0005A3003178D0000308F0003100A300313A1
:100D0000AF00F122603003178D0000308F00031018
:100D100004300313AF00F122103084002A08B00021
:100D20002908AF004A23633003178D0000308F007D
:100D3000031405300313AF00F1222E080C1E9E2E63
:100D40009900673003178D0000308F0003100630C4
:100D50000313AF00F1220430AF00FA30B9008B204A
:100D6000AF0BAD2EBA2E4130AC002C08F800BB2ED4
:100D70002B10BA2E692D8A110A12462F03081F392B
:100D80008300613083168F000F088312A001831641
:100D900003178711193003139900A630980090307B
:100DA00083129800FF30A100831603170908C03989
:100DB000890003131F129F1200300317880083124B
:100DC000870188018901831341300313A600F228AB
:100DD0002111210883168700831207110C30970018
:100DE00083169B019C0101309D008312A1102108F4
:100DF00083168700831287100C309D000030F800A6
:100E000006389200FF3083169200831295019B01F1
:100E1000831603170908C039890003131F129F1294
:100E2000033003178800831203131F179F178316BD
:100E30009F1783121F142608413A0319232F0C3AD7
:100E40000319362F492F6B3003178D0000308F00A8
:100E5000031330212308A8002208A7002508AA00B0
:100E60002408A900A32B7808A600492F7C3003177B
:100E70008D0000308F00031330212308A8002208C2
:100E8000A7002508AA002408A900402D7808A6007C
:060E9000492F1B2F630037
:04400E00A42CFF3FA0
:00000001FF
;PIC16F887
;CRC=8FF0  CREATED="30-nov.-22 15:21"
