:1000000002308A006D2A00004536A020C421A032AB
:100010007310E4323A10252675050D004536A020F0
:10002000C421A032731DA012CC3A00002D308400F0
:100030008313000803192A280130F800F701F70B91
:100040001F28F80B1E284A30F700F70B2528282810
:10005000800B1C280800340EF039F7000F3008051B
:1000600077048800000008143528081008000808E4
:10007000F700080E0F39F8000800831608108810E2
:100080000811831288100F3083160805F038880095
:100090008312081500000814000037207808B40007
:1000A000081000000814000037207808B30008107A
:1000B0000F308316080588008312340EF700F030E5
:1000C000F70577083304F8007808B300B31B43281A
:1000D000311C881031188814000008110000081025
:1000E000320EB3000F30B3053308B4002B203208B2
:1000F0000F39B300B4002B2008002830A4000C30C6
:10010000A5000130A6000630A700081088100811CD
:100110000F308316080588000810881008110F306A
:100120008312AD0016200130A3002308033C031CFA
:10013000A1280330B4002B200530AD001620A30AFF
:1001400095280230B4002B200530AD001620A30105
:100150002308033C031CB82824302307840083139E
:100160000008A800B1012808B2003D20A30AA82871
:100170008A110A12932A0B08A4008B138316031703
:100180008C170C140000000083120313A41B8B17A0
:100190000318F32803170C087F390313A40003176F
:1001A0000D080313A50003170F080313A600240866
:1001B0000C1ED8289900250803178D000313260864
:1001C00003178F0003130B08A7008B138316031765
:1001D0008C170C140000000083120313A71B8B174D
:1001E000A30BF328132903170C0D0E0D7F390313EE
:1001F000A40003170D080313A50003170F0803132A
:10020000A60024080C1E02299900250803178D005A
:100210000313260803178F008D0A03198F0A031092
:100220000313A30BBB288A110A12C02AAB010408CE
:10023000AA002B10831B2B14240EF038A600A6074F
:10024000E23EA700323EA90024080F39A707A707FE
:10025000A907E93EA800A807A807230E0F39A80799
:10026000A907A80DA90DA909A90D23080F39A907E8
:10027000A60D0730A5000A30A907A803031C3C29D6
:10028000A807A703031C4029A707A603031C4429AA
:10029000A607A503031C48292530840083130730D3
:1002A0002A052A1384072930040203192A17000893
:1002B000F700031D63292A1B63292A1A6B29AA192F
:1002C000632920306629AA152A123030F7077708EB
:1002D0000C1E68299900840A2A1F53298A110A12C0
:1002E000C72A2E0B742977294030AF007829AF0137
:1002F00001302D02AF072F088038B000B10130085F
:10030000B2003D2008002C08073A031991290B3A46
:1003100003199629063A03199E29023A0319A429BA
:10032000A9290130AD00AE007121AE29B101013023
:10033000B2003D200230AD001620AE290130AD00E4
:100340000230AE007121AE29B1011030B2003D2063
:10035000AE290130B1002C08B2003D2008000B0886
:10036000A4008B13831603178C170C1400000000D5
:1003700083120313A41B8B170318E62903170C0819
:100380007F390313A40003170D080313A5000317F7
:100390000F080313A6002408AC00832125080317C7
:1003A0008D000313260803178F0003130B08A70003
:1003B0008B13831603178C170C1400000000831294
:1003C0000313A71B8B17A30BE629052A03170C0D94
:1003D0000E0D7F390313A40003170D080313A500A6
:1003E00003170F080313A6002408AC008321250877
:1003F00003178D000313260803178F008D0A0319B6
:100400008F0A03100313A30BAF298A110A12E02AE3
:10041000AB010408AA002B10831B2B14240EF03808
:10042000A600A607E23EA700323EA90024080F3925
:10043000A707A707A907E93EA800A807A807230E52
:100440000F39A807A907A80DA90DA909A90D230807
:100450000F39A907A60D0730A5000A30A907A80380
:10046000031C2E2AA807A703031C322AA707A603EA
:10047000031C362AA607A503031C3A2A253084004C
:10048000831307302A052A1384072930040203192D
:100490002A170008F700031D552A2A1B552A2A1A75
:1004A000672AAA19552A2030582AAA152A1230304C
:1004B000F707A4010408A3002410831B2414770861
:1004C000AC00832123088400831324188317840A33
:1004D0002A1F452A8A110A12E72A03081F398300B6
:1004E000613083168F000F088312A0018316031753
:1004F0008711193003139900A630980090308312A9
:100500009800831603170908C039890003131F12C6
:100510009F12003003178800831287018801890128
:10052000831303137D28831603170908C039890034
:1005300003131F129F120130031788008312031345
:100540001F179F1783169F1783121F149F149F183E
:10055000A72A83161E088312A1001E08A2000430D9
:10056000A300FA30AD001620A30BB12A0430031704
:100570008D0000308F0003100E300313A300BB2842
:10058000103084002208A4002108A30016290A3094
:100590000C1EC82A99000D300C1ECC2A99000C3074
:1005A000AC0083210130AD00AE0071210E30031785
:1005B0008D0000308F0003100B300313A300AF2910
:1005C000103084002208A4002108A300082A043067
:1005D000A300FA30AD001620A30BE92AA62A630077
:04400E00A42CFF3FA0
:00000001FF
;PIC16F887
;CRC=FAE6  CREATED="18-nov.-22 13:16"
