:1000000002308A00932A0000CD37F437721041384D
:10001000E13361326F00D632EC37E334E430641DF3
:100020002018A5120000CD37F4377210C432F23216
:1000300063346100D632EC37E334E430641DA0123F
:10004000EC3AA0122500CD37F4377210693DF13A31
:10005000E93272326100D632EC37E334E430641DA9
:10006000A012EC3AA01225002F3084008313000860
:10007000031948280130F800F701F70B3D28F80B69
:100080003C284A30F700F70B43284628800B3A28D3
:100090000800360EF039F7000F30080577048800A5
:1000A000000008145328081008000808F700080E7C
:1000B0000F39F80008008316081088100811831201
:1000C00088100F3083160805F03888008312081551
:1000D00000000814000055207808B6000810000041
:1000E0000814000055207808B50008100F3083165A
:1000F000080588008312360EF700F030F705770800
:100100003504F8007808B500B51B6128331C881049
:10011000331888140000081100000810340EB500D0
:100120000F30B5053508B600492034080F39B50041
:10013000B600492008002830A6000C30A700013086
:10014000A8000630A9000810881008110F30831687
:10015000080588000810881008110F308312AF00BE
:1001600034200130A5002508033C031CBF280330C0
:10017000B60049200530AF003420A50AB32802306C
:10018000B60049200530AF003420A5012508033C06
:10019000031CD62826302507840083130008AA00F4
:1001A000B3012A08B4005B20A50AC6288A110A12E6
:1001B000AF2A300BDC28DF284030B100E028B10145
:1001C00001302F02B10731088038B200B301320884
:1001D000B4005B2008002E08073A0319F9280B3AEF
:1001E0000319FE28063A03190629023A03190C29B5
:1001F00011290130AF00B000D9201629B301013018
:10020000B4005B200230AF00342016290130AF006B
:100210000230B000D9201629B3011030B4005B20A1
:1002200016290130B3002E08B4005B2008000B082B
:10023000A5008B13831603178C170C140000000005
:1002400083120313A51B8B1703170C087F3903199F
:100250006B290313A50003170D080313A60003174A
:100260000F080313A7002508AE00EB20260803178C
:100270008D000313270803178F0003130B08A80032
:100280008B13831603178C170C14000000008312C5
:100290000313A81B8B1703170C0D0E0D7F390319C1
:1002A0006B290313A50003170D080313A6000317FA
:1002B0000F080313A7002508AE00EB20260803173C
:1002C0008D000313270803178F008D0A03198F0A67
:1002D000031317290317031308000B08A6008B1339
:1002E000831603178C170C140000000083120313ED
:1002F000A61B8B170318A42903170C087F390313B7
:10030000A60003170D080313A70003170F08031314
:10031000A8002608AE00EB20270803178D00031362
:10032000280803178F0003130B08A9008B138316EB
:1003300003178C170C140000000083120313A91B71
:100340008B17A50BA429C32903170C0D0E0D7F399C
:100350000313A60003170D080313A70003170F08C4
:100360000313A8002608AE00EB20270803178D0012
:100370000313280803178F008D0A03198F0A03102F
:100380000313A50B6D29080028082A068039AC0044
:10039000A81FCF29A709A809A70A0319A80AAA1FF5
:1003A000D629A909AA09A90A0319AA0AF801F90173
:1003B000F701FA012A08031DE02929080319FA297F
:1003C0001030AB000310A70DA80DF70DFA0D2A0889
:1003D0007A02031DED2929087702031CF629290852
:1003E000F702031CFA032A08FA020314F80DF90DA8
:1003F000AB0BE229AC1F012AF809F909F80A031925
:10040000F90A0800260828068039AA00A61F0D2A26
:10041000A509A609A50A0319A60AA81F142AA7094F
:10042000A809A70A0319A80A1030A900F701FA01C0
:10043000A60CA50C031C222A2708F7070318FA0AA2
:100440002808FA07FA0CF70CF90CF80CA90B182A73
:10045000AA1F2F2AF809F909F80A0319F90A08004E
:10046000AD010408AC002D10831B2D14260EF038AE
:10047000A800A807E23EA900323EAB0026080F39CB
:10048000A907A907AB07E93EAA00AA07AA07250EF4
:100490000F39AA07AB07AA0DAB0DAB09AB0D2508A9
:1004A0000F39AB07A80D0730A7000A30AB07AA0326
:1004B000031C562AAA07A903031C5A2AA907A80342
:1004C000031C5E2AA807A703031C622A27308400A6
:1004D000831307302C052C1384072B3004020319D7
:1004E0002C170008F700031D7D2A2C1B7D2A2C1ACF
:1004F0008F2AAC197D2A2030802AAC152C1230307E
:10050000F707A6010408A5002610831B2614770808
:10051000AE00EB2025088400831326188317840A75
:100520002C1F6D2A080003081F39830061308316D1
:100530008F000F08FF308312A000831603170908ED
:10054000C039890003131F129F120030031788005F
:100550008312870188018901831303139B282011CB
:10056000200883168700831207110C30970083162A
:100570009B019C0101309D000030F8000638831279
:100580009200FF30831692008312950183160317A1
:100590000908C039890003131F129F120130031785
:1005A0008800831203131F179F1783169F17831248
:1005B0001F140030F8001F08C33978049F009F14EF
:1005C0009F18E02A83161E088312A3001E08A400A9
:1005D000A41BF42A2408023C031C362B031DF42A16
:1005E0002308013C031C362BA41B362B2408003C9B
:1005F0000318362BFF3A031D012B2308FD3C03187B
:10060000362B201020088316870083120710A010B5
:10061000200883168700831287100C30AE00EB2071
:100620000130AF00B000D920043003178D00003036
:100630008F00031317210130AF000230B000D92022
:100640000B3003178D0000308F0003100C300313A4
:10065000A5006D212530AE00EB200430A500FA3056
:10066000AF003420A50B2F2B9501762CA41B422B19
:100670002408013C031CD62B031D422B2308FD3C00
:10068000031CD62B20102008831687008312071422
:10069000A010200883168700831287102408A80062
:1006A0002308A700AA010230A900C4217908A600E6
:1006B0007808A500FF30A5020030031C0130A60217
:1006C0002608FA002508A61F6E2B2508003CF70017
:1006D000FA012608031C260FFA027708A1007A08FF
:1006E000A2002208A6002108A500A8010430A70046
:1006F00002227908A6007808A500A60CA50CA60C75
:10070000A50CA60C25089500A60C260C3039F70080
:100710001708CF39770497002208A6002108A50002
:10072000A8016430A70002227908A6007808A50075
:100730007908A8007808A700AA01FF30A900C42101
:100740007908A2007808A1000C30AE00EB2001303F
:10075000AF00B000D920133003178D0000308F0098
:10076000031317210130AF000230B000D9201A3036
:1007700003178D0000308F0003100B300313A5000A
:100780006D21103084002208A6002108A500302227
:100790002030AE00EB202530AE00EB200430A50069
:1007A000FA30AF003420A50BD02B762CA41B762C6E
:1007B0002408013C0318762CFF3A031DE32B230881
:1007C000013C0318762CA0102008831687008312A2
:1007D000871420102008831687008312071024082E
:1007E000A8002308A700AA010230A900C4217908A3
:1007F000A6007808A500FF30A5020030031C0130D8
:10080000A6022608FA002508A61F0F2C2508003C82
:10081000F700FA012608031C260FFA027708A10048
:100820007A08A2002208A6002108A500A801043029
:10083000A70002227908A6007808A500A60CA50C3E
:10084000A60CA50CA60C25089500A60C260C303984
:10085000F7001708CF39770497002208A60021086F
:10086000A500A8016430A70002227908A600780834
:10087000A5007908A8007808A700AA01FF30A90000
:10088000C4217908A2007808A1000C30AE00EB204A
:100890000130AF00B000D920233003178D000030A5
:1008A0008F00031317210130AF000230B000D920B0
:1008B0002B3003178D0000308F0003100B30031313
:1008C000A5006D21103084002208A6002108A50093
:1008D00030222030AE00EB202530AE00EB2004307B
:1008E000A500FA30AF003420A50B712CD92A630083
:04400E00A42CFF3FA0
:00000001FF
;PIC16F887
;CRC=D6A4  CREATED="04-oct.-22 20:46"
