:1000000002308A00B12A0000D6376C3A6135651D8E
:10001000A01269004137E73AEC373A102536640000
:100020003730840083130008031924280130F800B6
:10003000F701F70B1928F80B18284A30F700F70BCF
:100040001F282228800B162808003E0EF039F700E2
:100050000F30080577048800000008142F280810C6
:1000600008000808F700080E0F39F800080083168A
:10007000081088100811831288100F3083160805A5
:10008000F0388800831208150000081400003120A1
:100090007808BE000810000008140000312078081D
:1000A000BD0008100F3083160805880083123E0E2D
:1000B000F700F030F70577083D04F8007808BD0038
:1000C000BD1B3D283B1C88103B18881400000811FC
:1000D000000008103C0EBD000F30BD053D08BE00FD
:1000E00025203C080F39BD00BE002520080028301F
:1000F000AB000C30AC000130AD000630AE00081093
:10010000881008110F308316080588000810881021
:1001100008110F308312B70010200130AA002A08FE
:10012000033C031C9B280330BE0025200530B7008C
:100130001020AA0A8F280230BE0025200530B70003
:100140001020AA012A08033C031CB2282B302A07DE
:10015000840083130008AF00BB012F08BC003720C8
:10016000AA0AA2288A110A12C92A2030B600B201AE
:10017000B301B401B5012D08FA002C08F9002B08D1
:10018000F8002A08F7000310771CD4282E08B207BD
:100190002F0803182F0FB30730080318300FB407C8
:1001A00031080318310FB507B50CB40CB30CB20C01
:1001B000FA0CF90CF80CF70CB60BC32808008318DE
:1001C000E4283E3084008313F701F801F901FA01B5
:1001D000BE01BF01C001C1013D083C043B043A041B
:1001E000031922292030C2000310B60DB70DB80D37
:1001F000B90DBE0DBF0DC00DC10D3D084102031D5F
:100200000B293C084002031D0B293B083F02031D3C
:100210000B293A083E02031C1C293A08BE023B087F
:10022000031C3B0FBF023C08031C3C0FC0023D08EF
:10023000031C3D0FC1020314F70DF80DF90DFA0D63
:10024000C20BF4283E088000840A3F088000840A1C
:1002500040088000840A410880000800380B3129DA
:1002600034294030B9003529B90101303702B907C6
:1002700039088038BA00BB013A08BC0037200800B2
:100280003608073A03194E290B3A03195329063A3F
:1002900003195B29023A0319612966290130B70065
:1002A000B8002E216B29BB010130BC003720023081
:1002B000B70010206B290130B7000230B8002E21A2
:1002C0006B29BB011030BC0037206B290130BB000B
:1002D0003608BC00372008000B08AB008B138316D0
:1002E00003178C170C140000000083120313AB1BC0
:1002F0008B170318A32903170C087F390313AB00CE
:1003000003170D080313AC0003170F080313AD0008
:100310002B08B60040212C0803178D0003132D086D
:1003200003178F0003130B08AE008B1383160317FC
:100330008C170C140000000083120313AE1B8B17E4
:10034000AA0BA329C22903170C0D0E0D7F39031325
:10035000AB0003170D080313AC0003170F080313BA
:10036000AD002B08B60040212C0803178D000313A5
:100370002D0803178F008D0A03198F0A031003132A
:10038000AA0B6C2908003108F80130020318CB29A8
:100390003008F700D729F7010830B200B00DF70D8B
:1003A000310877020318F700F80DB20BCE290800C8
:1003B00020302B1E3030AC002A08F700AA1FE82995
:1003C000F709F70A7708AA002D30AC00AB172B14F9
:1003D0002A08B0006430B100C3217708AA00303089
:1003E0007807AD002A08B0000A30B100C3213030D0
:1003F0007707AF0030307807AE002C08F7003030B8
:100400002D020319072AAB14AB1B2B151B2A2C0832
:10041000AD002030AC0030302E020319132A2B140B
:10042000AB1BAB141B2A031D2B14031D1B2A2D0809
:10043000AE002030AD002B19222AAB18252A2B182C
:10044000282A2B2A2C08B60040212D08B60040216E
:100450002E08B60040212F08B60040218A110A124A
:10046000542B0408AE00AD1F422AAE03AE16AA09F3
:10047000AB09AC09AD09AA0A0319AB0A0319AC0A06
:100480000319AD0A3B30B5009A30B400CA30B3004E
:10049000B2010A30B00083142A30840083132D087F
:1004A000B9002C08B8002B08B7002A08B600350898
:1004B000BD003408BC003308BB003208BA00DF209E
:1004C0007808F708031D772A3008013A0319772ABC
:1004D0002E080319792A0F3930020319712A0318DB
:1004E000952AAE1B952A2E1B792A2030912A20307E
:1004F000AE05AE1E842AAE127708AE002D30B600CF
:1005000040212E08F700AE013030AE1E912AAE1207
:100510007708AE002D30B60040212E08F700AE015E
:100520003030F7077708B600402183103508B9004E
:100530003408B8003308B7003208B600BD01BC016A
:10054000BB010A30BA00DF207A08B5007908B40090
:100550007808B3007708B200B00B4B2A8A110A1250
:100560006E2B03081F398300613083168F000F083C
:1005700003170908C039890003131F129F120030A6
:1005800003178800831287018801890183130313ED
:100590007728831603170908C039890003131F122F
:1005A0009F12013003178800831203131F179F1730
:1005B00083169F1783121F149F149F18DD2A83161A
:1005C0001E088312A1001E08A200A301A401240892
:1005D000AD002308AC002208AB002108AA00B1013D
:1005E000B0010130AF000E30AE00B5207A08AD008A
:1005F0007908AC007808AB007708AA0083107A0865
:10060000B9007908B8007808B7007708B600BD01CE
:10061000BC010330BB00FD30BA00DF207A08A9001E
:100620007908A8007808A7007708A6002408AD007C
:100630002308AC002208AB002108AA00B101B001D8
:10064000AF010530AE00B5207A08AD007908AC00E6
:100650007808AB007708AA0083107A08B9007908F7
:10066000B8007808B7007708B600BD01BC010330B8
:10067000BB00FD30BA00DF207708A5000C30B600C3
:1006800040210130B700B8002E21043003178D003F
:1006900000308F00031009300313AA006C212508D5
:1006A000AA001830AB00D8290130B7000230B800DA
:1006B0002E210A3003178D0000308F000310083000
:1006C0000313AA006C21413084002908AD002808DA
:1006D000AC002708AB002608AA00312A0430AA0083
:0E06E000FA30B7001020AA0B702BDC2A630042
:04400E00A42CFF3FA0
:00000001FF
;PIC16F887
;CRC=913C  CREATED="29-sep.-22 15:46"
